S00D000066306C65642E737265634C
S31508000000002000202904000825040008210400080F
S3150800001000000000000000000000000000000000D2
S315080000200000000000000000000000002504000891
S315080000300000000000000000250400082504000850
S3150800004021040008210400082104000821040008EE
S3150800005021040008210400082104000821040008DE
S3150800006021040008210400082104000821040008CE
S3150800007021040008210400082104000821040008BE
S3150800008021040008210400082104000821040008AE
S31508000090210400082104000821040008210400089E
S315080000A0210400082104000821040008210400088E
S315080000B0210400082104000821040008210400087E
S315080000C008B500F0F1F808BD08B5054800F00CF9C8
S315080000D0C0230448012100229B0000F053F908BD03
S315080000E0930200000008004810B51648164C00F0A8
S315080000F0FBF8164800F0F8F8C023201C022100225D
S3150800010000F040F9C022201C0021114C00F05FF9D4
S31508000110E121201C490200F0F5F8201C082100F016
S31508000120FFF8201C002100F009F9201C002100F02E
S3150800013013F9201C0C2100F009F9201C00F014F911
S3150800014010BDC04693020000000400480E030000DC
S315080001500038014008B500F0A7F8FFF7B5FF802181
S315080001600948490000F005F980210748890000F090
S3150800017002F9C0210448890000F000F9034BC04683
S31508000180013B002BFBD1F4E70008004840420F0072
S31508000190024B01211A680A431A607047321002405E
S315080001A0034B03211A688A4302210A431A607047DF
S315080001B00410024000B5052822D8124B00F07CF93D
S315080001C003080D121C17202219681142FCD117E0EA
S315080001D0042219681142FCD112E00822196811425A
S315080001E0FCD10DE0102219681142FCD108E0022268
S315080001F019681142FCD103E0012219681142FCD1A9
S3150800020000BDC0460810024008B5052815D800F0FC
S3150800021053F9030608140F0DFFF7BAFF0DE0074B55
S3150800022007E0064B80221968520204E0044B00E0FE
S31508000230044B1A6801210A431A6008BD00100240DF
S31508000240201002402410024008B5022808D00328CE
S315080002500ED001280ED1084B03211A688A4305E0FF
S31508000260054B03211A688A4301210A431A6001E0F3
S31508000270FFF796FF08BDC04604100240034B044A28
S3150800028019680A40104318607047C04604100240B7
S31508000290FFF8FFFF034BF0211A688A4310431860E2
S315080002A07047C0460410024008B50120FFF7ACFFAE
S315080002B00120FFF77FFF0120FFF7C6FF0020FFF7A9
S315080002C0E9FF0020FFF7DAFF002000F0EBF8034B08
S315080002D0034A1360034A136008BDC04600127A0039
S315080002E00400002000000020054A43091F219B182E
S315080002F0084001211A688140081C1043186070479D
S3150800030000100240054B10B5041C18684000081878
S31508000310490000F069F9E06010BDC04604000020FD
S3150800032000B50268082902D1034B134002E0802376
S315080003305B011343036000BDFFEFFFFF0268024B3A
S315080003401340194301607047FFF9FFFF03680C2249
S3150800035093431943016070478268024B134019435F
S3150800036081607047FFFCFFFF0368012213430360A7
S315080003707047816170470904816170474369594034
S3150800038041617047F0B585B003910168C4688C4631
S3150800039001930021019D01230D411D420FD04D00FF
S315080003A00326AE40F64367463740BC46039F63467E
S315080003B03440AF40161C1F43AE40BC46344301319F
S315080003C01029E7D167460760C46005B0F0BDF0B5EF
S315080003D0056A446A0023161C1E4101273E4206D0C0
S315080003E09E000F27B740BD430F1CB7403D4301335E
S315080003F0082BF0D100231F1C0837161C3E41371C5A
S315080004000126374206D09E000F27B740BC430F1C73
S31508000410B7403C430133082BEDD105624462F0BD79
S3150800042000B5FEE7704700000022144D1448154930
S3150800043002E0246804321C60131854198B42F8D35E
S3150800044001E002C301E0104A00219342F9D30F4CA0
S3150800045001E008CC98470E4B9C42FAD30D4C01E0BC
S3150800046008CC98470C4B9C42FAD3FFF773FE0B4C0B
S3150800047001E008CC98470A4B9C42FAD3F0050008DD
S31508000480000000200800002008000020F0050008F1
S31508000490F0050008F0050008F0050008F00500085A
S315080004A0F0050008034B07211A688A4310431860B1
S315080004B07047C0460020024002B471464908490008
S315080004C0095C49008E4402BC7047C046012051E2CF
S315080004D01EFF2F013600003A010050E12200009A63
S315080004E0020011E12300000A0E0211E38111A001A6
S315080004F00830A0030130A013010251E30000513176
S315080005000112A0310332A031FAFFFF3A020151E38A
S31508000510000051318110A0318330A031FAFFFF3A33
S315080005200020A0E3010050E10100402003208221C1
S31508000530A10050E1A1004020A3208221210150E121
S315080005402101402023218221A10150E1A10140205F
S31508000550A3218221000050E32332B0112112A011F9
S31508000560EFFFFF1A0200A0E11EFF2FE10100A00322
S315080005700000A0131EFF2FE1010851E32118A02156
S315080005801020A0230020A033010C51E32114A02140
S3150800059008208222100051E32112A0210420822281
S315080005A0040051E303208282A12082903002A0E158
S315080005B01EFF2FE1000050E30000E013070000EAE9
S315080005C0000051E3FAFFFF0A03402DE9BEFFFFEBE7
S315080005D00640BDE8920003E0031041E01EFF2FE14C
S315080005E01EFF2FE1000000007847C046B6FFFFEA6D
S30D080005F000127A0000127A00DD
S70508000429C5
